S00C00004C6162352E73726563D4
S113000019C034C072C031C030C02FC02EC02DC042
S11300102CC02BC02AC029C028C027C026C025C098
S113002024C023C022C021C020C01FC01EC01DC0C8
S11300301CC01BC011241FBECFEFD4E0DEBFCDBF58
S113004011E0A0E0B1E0E6E7F1E002C005900D9216
S1130050A030B107D9F721E0A0E0B1E001C01D92C2
S1130060A230B207E1F760D084C0CACF1F920F92CA
S113007000905F000F9211242F933F938F939F93CF
S1130080EF93FF93CF93DF93CDB7DEB78BE290E08E
S1130090FC018081882F90E084709927009751F4A7
S11300A08DE390E02DE330E0F90120812260FC0132
S11300B020830DC08DE390E02DE330E0F901208131
S11300C02D7FFC0120831092010110920001DF9129
S11300D0CF91FF91EF919F918F913F912F910F902D
S11300E000925F000F901F9018951F920F9200903E
S11300F05F000F9211248F939F93CF93DF93CDB71B
S1130100DEB7809100019091010101969093010165
S113011080930001DF91CF919F918F910F90009276
S11301205F000F901F901895CF93DF93CDB7DEB784
S11301308AE290E0FC01108278948DE390E02DE354
S113014030E0F90120812160FC01208389E690E000
S113015029E630E0F90120812160FC01208389E651
S113016090E029E630E0F90120812860FC01208339
S1090170FFCFF894FFCF5D
S9030000FC
