:1000000019C034C032C031C030C02FC02EC02DC086
:100010002CC02BC02AC029C028C027C026C025C09C
:1000200024C023C022C021C020C01FC01EC01DC0CC
:100030001CC01BC011241FBECFEFD4E0DEBFCDBF5C
:1000400011E0A0E0B1E0ECECF0E002C005900D9210
:10005000A030B107D9F721E0A0E0B1E001C01D92C6
:10006000A030B207E1F714D02FC0CACF1F920F9271
:1000700000905F000F921124CF93DF93CDB7DEB7CE
:10008000DF91CF910F9000925F000F901F90189515
:10009000CF93DF93CDB7DEB78AE290E0FC01108208
:1000A00078948DE390E02DE330E0F9012081216028
:1000B000FC01208389E690E029E630E0F901208107
:0C00C0002260FC012083FFCFF894FFCFEA
:00000001FF
